{
  "_format": "hh-sol-artifact-1",
  "contractName": "EVault_Main",
  "sourceName": "contracts/EVault_Main.sol",
  "abi": [
    {
      "inputs": [],
      "stateMutability": "nonpayable",
      "type": "constructor"
    },
    {
      "anonymous": false,
      "inputs": [
        {
          "indexed": false,
          "internalType": "uint256",
          "name": "caseId",
          "type": "uint256"
        }
      ],
      "name": "CaseRegistered",
      "type": "event"
    },
    {
      "anonymous": false,
      "inputs": [
        {
          "indexed": false,
          "internalType": "uint256",
          "name": "UID",
          "type": "uint256"
        }
      ],
      "name": "ClientRegistered",
      "type": "event"
    },
    {
      "anonymous": false,
      "inputs": [
        {
          "indexed": false,
          "internalType": "uint256",
          "name": "UID",
          "type": "uint256"
        }
      ],
      "name": "JudgeRegistered",
      "type": "event"
    },
    {
      "anonymous": false,
      "inputs": [
        {
          "indexed": false,
          "internalType": "uint256",
          "name": "UID",
          "type": "uint256"
        }
      ],
      "name": "LawyerRegistered",
      "type": "event"
    },
    {
      "inputs": [],
      "name": "caseIdCounter",
      "outputs": [
        {
          "internalType": "uint256",
          "name": "",
          "type": "uint256"
        }
      ],
      "stateMutability": "view",
      "type": "function"
    },
    {
      "inputs": [
        {
          "internalType": "uint256",
          "name": "",
          "type": "uint256"
        }
      ],
      "name": "clients",
      "outputs": [
        {
          "internalType": "string",
          "name": "name",
          "type": "string"
        },
        {
          "internalType": "string",
          "name": "dateOfBirth",
          "type": "string"
        },
        {
          "internalType": "string",
          "name": "religion",
          "type": "string"
        },
        {
          "internalType": "string",
          "name": "nationality",
          "type": "string"
        },
        {
          "internalType": "string",
          "name": "sex",
          "type": "string"
        },
        {
          "internalType": "string",
          "name": "contactNumber",
          "type": "string"
        },
        {
          "internalType": "uint256",
          "name": "UID",
          "type": "uint256"
        },
        {
          "internalType": "string",
          "name": "PAN",
          "type": "string"
        },
        {
          "internalType": "address",
          "name": "walletAddress",
          "type": "address"
        }
      ],
      "stateMutability": "view",
      "type": "function"
    },
    {
      "inputs": [],
      "name": "contractName",
      "outputs": [
        {
          "internalType": "string",
          "name": "",
          "type": "string"
        }
      ],
      "stateMutability": "view",
      "type": "function"
    },
    {
      "inputs": [],
      "name": "contractOwner",
      "outputs": [
        {
          "internalType": "address",
          "name": "",
          "type": "address"
        }
      ],
      "stateMutability": "view",
      "type": "function"
    },
    {
      "inputs": [
        {
          "internalType": "uint256",
          "name": "_caseId",
          "type": "uint256"
        }
      ],
      "name": "getCaseDetailsByCaseId",
      "outputs": [
        {
          "internalType": "uint256",
          "name": "UIDOfParty1",
          "type": "uint256"
        },
        {
          "internalType": "uint256",
          "name": "UIDOfParty2",
          "type": "uint256"
        },
        {
          "internalType": "uint256",
          "name": "filedOnDate",
          "type": "uint256"
        },
        {
          "internalType": "uint256[]",
          "name": "associatedLawyers",
          "type": "uint256[]"
        },
        {
          "internalType": "uint256",
          "name": "associatedJudge",
          "type": "uint256"
        },
        {
          "internalType": "uint256",
          "name": "caseId",
          "type": "uint256"
        },
        {
          "internalType": "string",
          "name": "caseSubject",
          "type": "string"
        },
        {
          "internalType": "string[]",
          "name": "caseProgress",
          "type": "string[]"
        },
        {
          "internalType": "address[]",
          "name": "caseProgressIssuer",
          "type": "address[]"
        },
        {
          "internalType": "string[]",
          "name": "caseDocumentHash",
          "type": "string[]"
        },
        {
          "internalType": "address[]",
          "name": "caseDocumentUploader",
          "type": "address[]"
        }
      ],
      "stateMutability": "view",
      "type": "function"
    },
    {
      "inputs": [
        {
          "internalType": "uint256",
          "name": "_UID",
          "type": "uint256"
        }
      ],
      "name": "getClientDetailsByUID",
      "outputs": [
        {
          "internalType": "string",
          "name": "name",
          "type": "string"
        },
        {
          "internalType": "string",
          "name": "dateOfBirth",
          "type": "string"
        },
        {
          "internalType": "string",
          "name": "religion",
          "type": "string"
        },
        {
          "internalType": "string",
          "name": "nationality",
          "type": "string"
        },
        {
          "internalType": "string",
          "name": "sex",
          "type": "string"
        },
        {
          "internalType": "string",
          "name": "contactNumber",
          "type": "string"
        },
        {
          "internalType": "uint256",
          "name": "UID",
          "type": "uint256"
        },
        {
          "internalType": "string",
          "name": "PAN",
          "type": "string"
        },
        {
          "internalType": "uint256[]",
          "name": "associatedCaseIds",
          "type": "uint256[]"
        },
        {
          "internalType": "address",
          "name": "walletAddress",
          "type": "address"
        }
      ],
      "stateMutability": "view",
      "type": "function"
    },
    {
      "inputs": [
        {
          "internalType": "uint256",
          "name": "_UID",
          "type": "uint256"
        }
      ],
      "name": "getFiledLegalCasesForAClient",
      "outputs": [
        {
          "components": [
            {
              "internalType": "uint256",
              "name": "UIDOfParty1",
              "type": "uint256"
            },
            {
              "internalType": "uint256",
              "name": "UIDOfParty2",
              "type": "uint256"
            },
            {
              "internalType": "uint256",
              "name": "filedOnDate",
              "type": "uint256"
            },
            {
              "internalType": "uint256[]",
              "name": "associatedLawyers",
              "type": "uint256[]"
            },
            {
              "internalType": "uint256",
              "name": "associatedJudge",
              "type": "uint256"
            },
            {
              "internalType": "uint256",
              "name": "caseId",
              "type": "uint256"
            },
            {
              "internalType": "string",
              "name": "caseSubject",
              "type": "string"
            },
            {
              "internalType": "string[]",
              "name": "caseProgress",
              "type": "string[]"
            },
            {
              "internalType": "address[]",
              "name": "caseProgressIssuer",
              "type": "address[]"
            },
            {
              "internalType": "string[]",
              "name": "caseDocumentHash",
              "type": "string[]"
            },
            {
              "internalType": "address[]",
              "name": "caseDocumentUploader",
              "type": "address[]"
            }
          ],
          "internalType": "struct EVault_Main.LegalCase[]",
          "name": "",
          "type": "tuple[]"
        }
      ],
      "stateMutability": "view",
      "type": "function"
    },
    {
      "inputs": [
        {
          "internalType": "uint256",
          "name": "_UID",
          "type": "uint256"
        }
      ],
      "name": "getFiledLegalCasesForAJudge",
      "outputs": [
        {
          "components": [
            {
              "internalType": "uint256",
              "name": "UIDOfParty1",
              "type": "uint256"
            },
            {
              "internalType": "uint256",
              "name": "UIDOfParty2",
              "type": "uint256"
            },
            {
              "internalType": "uint256",
              "name": "filedOnDate",
              "type": "uint256"
            },
            {
              "internalType": "uint256[]",
              "name": "associatedLawyers",
              "type": "uint256[]"
            },
            {
              "internalType": "uint256",
              "name": "associatedJudge",
              "type": "uint256"
            },
            {
              "internalType": "uint256",
              "name": "caseId",
              "type": "uint256"
            },
            {
              "internalType": "string",
              "name": "caseSubject",
              "type": "string"
            },
            {
              "internalType": "string[]",
              "name": "caseProgress",
              "type": "string[]"
            },
            {
              "internalType": "address[]",
              "name": "caseProgressIssuer",
              "type": "address[]"
            },
            {
              "internalType": "string[]",
              "name": "caseDocumentHash",
              "type": "string[]"
            },
            {
              "internalType": "address[]",
              "name": "caseDocumentUploader",
              "type": "address[]"
            }
          ],
          "internalType": "struct EVault_Main.LegalCase[]",
          "name": "",
          "type": "tuple[]"
        }
      ],
      "stateMutability": "view",
      "type": "function"
    },
    {
      "inputs": [
        {
          "internalType": "uint256",
          "name": "_UID",
          "type": "uint256"
        }
      ],
      "name": "getFiledLegalCasesForALawyer",
      "outputs": [
        {
          "components": [
            {
              "internalType": "uint256",
              "name": "UIDOfParty1",
              "type": "uint256"
            },
            {
              "internalType": "uint256",
              "name": "UIDOfParty2",
              "type": "uint256"
            },
            {
              "internalType": "uint256",
              "name": "filedOnDate",
              "type": "uint256"
            },
            {
              "internalType": "uint256[]",
              "name": "associatedLawyers",
              "type": "uint256[]"
            },
            {
              "internalType": "uint256",
              "name": "associatedJudge",
              "type": "uint256"
            },
            {
              "internalType": "uint256",
              "name": "caseId",
              "type": "uint256"
            },
            {
              "internalType": "string",
              "name": "caseSubject",
              "type": "string"
            },
            {
              "internalType": "string[]",
              "name": "caseProgress",
              "type": "string[]"
            },
            {
              "internalType": "address[]",
              "name": "caseProgressIssuer",
              "type": "address[]"
            },
            {
              "internalType": "string[]",
              "name": "caseDocumentHash",
              "type": "string[]"
            },
            {
              "internalType": "address[]",
              "name": "caseDocumentUploader",
              "type": "address[]"
            }
          ],
          "internalType": "struct EVault_Main.LegalCase[]",
          "name": "",
          "type": "tuple[]"
        }
      ],
      "stateMutability": "view",
      "type": "function"
    },
    {
      "inputs": [
        {
          "internalType": "uint256",
          "name": "_UID",
          "type": "uint256"
        }
      ],
      "name": "getJudgeDetailsByUID",
      "outputs": [
        {
          "internalType": "string",
          "name": "name",
          "type": "string"
        },
        {
          "internalType": "string",
          "name": "dateOfBirth",
          "type": "string"
        },
        {
          "internalType": "string",
          "name": "religion",
          "type": "string"
        },
        {
          "internalType": "string",
          "name": "nationality",
          "type": "string"
        },
        {
          "internalType": "string",
          "name": "sex",
          "type": "string"
        },
        {
          "internalType": "string",
          "name": "contactNumber",
          "type": "string"
        },
        {
          "internalType": "uint256",
          "name": "UID",
          "type": "uint256"
        },
        {
          "internalType": "string",
          "name": "PAN",
          "type": "string"
        },
        {
          "internalType": "uint256[]",
          "name": "associatedCaseIds",
          "type": "uint256[]"
        },
        {
          "internalType": "address",
          "name": "walletAddress",
          "type": "address"
        }
      ],
      "stateMutability": "view",
      "type": "function"
    },
    {
      "inputs": [
        {
          "internalType": "uint256",
          "name": "_UID",
          "type": "uint256"
        }
      ],
      "name": "getLawyerDetailsByUID",
      "outputs": [
        {
          "internalType": "string",
          "name": "name",
          "type": "string"
        },
        {
          "internalType": "string",
          "name": "dateOfBirth",
          "type": "string"
        },
        {
          "internalType": "string",
          "name": "religion",
          "type": "string"
        },
        {
          "internalType": "string",
          "name": "nationality",
          "type": "string"
        },
        {
          "internalType": "string",
          "name": "sex",
          "type": "string"
        },
        {
          "internalType": "string",
          "name": "contactNumber",
          "type": "string"
        },
        {
          "internalType": "uint256",
          "name": "UID",
          "type": "uint256"
        },
        {
          "internalType": "string",
          "name": "PAN",
          "type": "string"
        },
        {
          "internalType": "uint256[]",
          "name": "associatedCaseIds",
          "type": "uint256[]"
        },
        {
          "internalType": "address",
          "name": "walletAddress",
          "type": "address"
        }
      ],
      "stateMutability": "view",
      "type": "function"
    },
    {
      "inputs": [
        {
          "internalType": "uint256",
          "name": "",
          "type": "uint256"
        }
      ],
      "name": "judges",
      "outputs": [
        {
          "internalType": "string",
          "name": "name",
          "type": "string"
        },
        {
          "internalType": "string",
          "name": "dateOfBirth",
          "type": "string"
        },
        {
          "internalType": "string",
          "name": "religion",
          "type": "string"
        },
        {
          "internalType": "string",
          "name": "nationality",
          "type": "string"
        },
        {
          "internalType": "string",
          "name": "sex",
          "type": "string"
        },
        {
          "internalType": "string",
          "name": "contactNumber",
          "type": "string"
        },
        {
          "internalType": "uint256",
          "name": "UID",
          "type": "uint256"
        },
        {
          "internalType": "string",
          "name": "PAN",
          "type": "string"
        },
        {
          "internalType": "address",
          "name": "walletAddress",
          "type": "address"
        }
      ],
      "stateMutability": "view",
      "type": "function"
    },
    {
      "inputs": [],
      "name": "judgesCount",
      "outputs": [
        {
          "internalType": "uint256",
          "name": "",
          "type": "uint256"
        }
      ],
      "stateMutability": "view",
      "type": "function"
    },
    {
      "inputs": [
        {
          "internalType": "uint256",
          "name": "",
          "type": "uint256"
        }
      ],
      "name": "lawyers",
      "outputs": [
        {
          "internalType": "string",
          "name": "name",
          "type": "string"
        },
        {
          "internalType": "string",
          "name": "dateOfBirth",
          "type": "string"
        },
        {
          "internalType": "string",
          "name": "religion",
          "type": "string"
        },
        {
          "internalType": "string",
          "name": "nationality",
          "type": "string"
        },
        {
          "internalType": "string",
          "name": "sex",
          "type": "string"
        },
        {
          "internalType": "string",
          "name": "contactNumber",
          "type": "string"
        },
        {
          "internalType": "uint256",
          "name": "UID",
          "type": "uint256"
        },
        {
          "internalType": "string",
          "name": "PAN",
          "type": "string"
        },
        {
          "internalType": "address",
          "name": "walletAddress",
          "type": "address"
        }
      ],
      "stateMutability": "view",
      "type": "function"
    },
    {
      "inputs": [
        {
          "internalType": "uint256",
          "name": "",
          "type": "uint256"
        }
      ],
      "name": "legalCases",
      "outputs": [
        {
          "internalType": "uint256",
          "name": "UIDOfParty1",
          "type": "uint256"
        },
        {
          "internalType": "uint256",
          "name": "UIDOfParty2",
          "type": "uint256"
        },
        {
          "internalType": "uint256",
          "name": "filedOnDate",
          "type": "uint256"
        },
        {
          "internalType": "uint256",
          "name": "associatedJudge",
          "type": "uint256"
        },
        {
          "internalType": "uint256",
          "name": "caseId",
          "type": "uint256"
        },
        {
          "internalType": "string",
          "name": "caseSubject",
          "type": "string"
        }
      ],
      "stateMutability": "view",
      "type": "function"
    },
    {
      "inputs": [
        {
          "internalType": "uint256",
          "name": "_UID",
          "type": "uint256"
        }
      ],
      "name": "loginAsAClient",
      "outputs": [
        {
          "internalType": "bool",
          "name": "",
          "type": "bool"
        }
      ],
      "stateMutability": "view",
      "type": "function"
    },
    {
      "inputs": [
        {
          "internalType": "uint256",
          "name": "_UID",
          "type": "uint256"
        }
      ],
      "name": "loginAsAJudge",
      "outputs": [
        {
          "internalType": "bool",
          "name": "",
          "type": "bool"
        }
      ],
      "stateMutability": "view",
      "type": "function"
    },
    {
      "inputs": [
        {
          "internalType": "uint256",
          "name": "_UID",
          "type": "uint256"
        }
      ],
      "name": "loginAsALawyer",
      "outputs": [
        {
          "internalType": "bool",
          "name": "",
          "type": "bool"
        }
      ],
      "stateMutability": "view",
      "type": "function"
    },
    {
      "inputs": [
        {
          "internalType": "string",
          "name": "_name",
          "type": "string"
        },
        {
          "internalType": "string",
          "name": "_dateOfBirth",
          "type": "string"
        },
        {
          "internalType": "string",
          "name": "_religion",
          "type": "string"
        },
        {
          "internalType": "string",
          "name": "_nationality",
          "type": "string"
        },
        {
          "internalType": "string",
          "name": "_sex",
          "type": "string"
        },
        {
          "internalType": "string",
          "name": "_contactNumber",
          "type": "string"
        },
        {
          "internalType": "uint256",
          "name": "_UID",
          "type": "uint256"
        },
        {
          "internalType": "string",
          "name": "_PAN",
          "type": "string"
        },
        {
          "internalType": "address",
          "name": "_walletAddress",
          "type": "address"
        }
      ],
      "name": "registerClient",
      "outputs": [],
      "stateMutability": "nonpayable",
      "type": "function"
    },
    {
      "inputs": [
        {
          "internalType": "string",
          "name": "_name",
          "type": "string"
        },
        {
          "internalType": "string",
          "name": "_dateOfBirth",
          "type": "string"
        },
        {
          "internalType": "string",
          "name": "_religion",
          "type": "string"
        },
        {
          "internalType": "string",
          "name": "_nationality",
          "type": "string"
        },
        {
          "internalType": "string",
          "name": "_sex",
          "type": "string"
        },
        {
          "internalType": "string",
          "name": "_contactNumber",
          "type": "string"
        },
        {
          "internalType": "uint256",
          "name": "_UID",
          "type": "uint256"
        },
        {
          "internalType": "string",
          "name": "_PAN",
          "type": "string"
        },
        {
          "internalType": "address",
          "name": "_walletAddress",
          "type": "address"
        }
      ],
      "name": "registerJudge",
      "outputs": [],
      "stateMutability": "nonpayable",
      "type": "function"
    },
    {
      "inputs": [
        {
          "internalType": "string",
          "name": "_name",
          "type": "string"
        },
        {
          "internalType": "string",
          "name": "_dateOfBirth",
          "type": "string"
        },
        {
          "internalType": "string",
          "name": "_religion",
          "type": "string"
        },
        {
          "internalType": "string",
          "name": "_nationality",
          "type": "string"
        },
        {
          "internalType": "string",
          "name": "_sex",
          "type": "string"
        },
        {
          "internalType": "string",
          "name": "_contactNumber",
          "type": "string"
        },
        {
          "internalType": "uint256",
          "name": "_UID",
          "type": "uint256"
        },
        {
          "internalType": "string",
          "name": "_PAN",
          "type": "string"
        },
        {
          "internalType": "address",
          "name": "_walletAddress",
          "type": "address"
        }
      ],
      "name": "registerLawyer",
      "outputs": [],
      "stateMutability": "nonpayable",
      "type": "function"
    },
    {
      "inputs": [
        {
          "internalType": "uint256",
          "name": "_UIDOfParty1",
          "type": "uint256"
        },
        {
          "internalType": "uint256",
          "name": "_UIDOfParty2",
          "type": "uint256"
        },
        {
          "internalType": "string",
          "name": "_caseSubject",
          "type": "string"
        },
        {
          "internalType": "uint256[]",
          "name": "_associatedLawyers",
          "type": "uint256[]"
        }
      ],
      "name": "registerLegalCase",
      "outputs": [],
      "stateMutability": "nonpayable",
      "type": "function"
    },
    {
      "inputs": [
        {
          "internalType": "uint256",
          "name": "_caseId",
          "type": "uint256"
        },
        {
          "internalType": "string",
          "name": "_ipfsHash",
          "type": "string"
        }
      ],
      "name": "updateCaseDocumentsWithCaseId",
      "outputs": [
        {
          "internalType": "bool",
          "name": "",
          "type": "bool"
        }
      ],
      "stateMutability": "nonpayable",
      "type": "function"
    },
    {
      "inputs": [
        {
          "internalType": "uint256",
          "name": "_caseId",
          "type": "uint256"
        },
        {
          "internalType": "string",
          "name": "_progress",
          "type": "string"
        }
      ],
      "name": "updateCaseProgressWithCaseId",
      "outputs": [
        {
          "internalType": "bool",
          "name": "",
          "type": "bool"
        }
      ],
      "stateMutability": "nonpayable",
      "type": "function"
    }
  ],
  "bytecode": "0x6080604052600160025560006003553480156200001b57600080fd5b5060408051808201909152600b8082526a22ab30bab63a2fa6b0b4b760a91b6020909201918252620000509160019162000069565b50600080546001600160a01b031916331790556200014c565b82805462000077906200010f565b90600052602060002090601f0160209004810192826200009b5760008555620000e6565b82601f10620000b657805160ff1916838001178555620000e6565b82800160010185558215620000e6579182015b82811115620000e6578251825591602001919060010190620000c9565b50620000f4929150620000f8565b5090565b5b80821115620000f45760008155600101620000f9565b600181811c908216806200012457607f821691505b602082108114156200014657634e487b7160e01b600052602260045260246000fd5b50919050565b6158c7806200015c6000396000f3fe608060405234801561001057600080fd5b50600436106101985760003560e01c80634fb408f8116100e3578063a33bf6d21161008c578063ce606ee011610066578063ce606ee0146103ae578063f731b10e146103d9578063f88af21d146103e257600080fd5b8063a33bf6d214610360578063b06b036814610388578063b91451561461039b57600080fd5b80638cb938d6116100bd5780638cb938d6146103275780639211714d1461033a578063a19d9a571461034d57600080fd5b80634fb408f8146102e857806375d0c0dc146102fb57806384d36adb1461031057600080fd5b8063297f593611610145578063303dabaa1161011f578063303dabaa146102af5780633b977694146102c2578063452f65d0146102d557600080fd5b8063297f5936146102695780632ca03c871461027c5780632dd5118e1461029c57600080fd5b806313680e2c1161017657806313680e2c1461021e578063187f53ef146102415780631bfce3ae1461025657600080fd5b8063020b8bc51461019d578063063b635a146101cb5780630c288430146101f4575b600080fd5b6101b06101ab366004614f95565b6103f5565b6040516101c296959493929190614ffb565b60405180910390f35b6101de6101d9366004614f95565b6104b9565b6040516101c29a99989796959493929190615073565b610207610202366004614f95565b610a31565b6040516101c29b9a999897969594939291906151cd565b61023161022c366004614f95565b610ec0565b60405190151581526020016101c2565b61025461024f36600461534b565b610ee6565b005b6101de610264366004614f95565b61137d565b61025461027736600461534b565b611880565b61028f61028a366004614f95565b611c60565b6040516101c291906154d6565b6102316102aa366004615603565b612619565b6102546102bd36600461534b565b6126f7565b6102316102d0366004614f95565b612ad7565b6102546102e336600461564a565b612af3565b61028f6102f6366004614f95565b612f35565b6103036138e5565b6040516101c29190615728565b61031960025481565b6040519081526020016101c2565b610231610335366004615603565b613973565b610231610348366004614f95565b613a51565b6101de61035b366004614f95565b613a6d565b61037361036e366004614f95565b613f70565b6040516101c299989796959493929190615742565b610373610396366004614f95565b614377565b61028f6103a9366004614f95565b614392565b6000546103c1906001600160a01b031681565b6040516001600160a01b0390911681526020016101c2565b61031960035481565b6103736103f0366004614f95565b614d42565b6006602052806000526040600020600091509050806000015490806001015490806002015490806004015490806005015490806006018054610436906157f5565b80601f0160208091040260200160405190810160405280929190818152602001828054610462906157f5565b80156104af5780601f10610484576101008083540402835291602001916104af565b820191906000526020600020905b81548152906001019060200180831161049257829003601f168201915b5050505050905086565b6060806060806060806000606080600080600860008d8152602001908152602001600020604051806101400160405290816000820180546104f9906157f5565b80601f0160208091040260200160405190810160405280929190818152602001828054610525906157f5565b80156105725780601f1061054757610100808354040283529160200191610572565b820191906000526020600020905b81548152906001019060200180831161055557829003601f168201915b5050505050815260200160018201805461058b906157f5565b80601f01602080910402602001604051908101604052809291908181526020018280546105b7906157f5565b80156106045780601f106105d957610100808354040283529160200191610604565b820191906000526020600020905b8154815290600101906020018083116105e757829003601f168201915b5050505050815260200160028201805461061d906157f5565b80601f0160208091040260200160405190810160405280929190818152602001828054610649906157f5565b80156106965780601f1061066b57610100808354040283529160200191610696565b820191906000526020600020905b81548152906001019060200180831161067957829003601f168201915b505050505081526020016003820180546106af906157f5565b80601f01602080910402602001604051908101604052809291908181526020018280546106db906157f5565b80156107285780601f106106fd57610100808354040283529160200191610728565b820191906000526020600020905b81548152906001019060200180831161070b57829003601f168201915b50505050508152602001600482018054610741906157f5565b80601f016020809104026020016040519081016040528092919081815260200182805461076d906157f5565b80156107ba5780601f1061078f576101008083540402835291602001916107ba565b820191906000526020600020905b81548152906001019060200180831161079d57829003601f168201915b505050505081526020016005820180546107d3906157f5565b80601f01602080910402602001604051908101604052809291908181526020018280546107ff906157f5565b801561084c5780601f106108215761010080835404028352916020019161084c565b820191906000526020600020905b81548152906001019060200180831161082f57829003601f168201915b505050505081526020016006820154815260200160078201805461086f906157f5565b80601f016020809104026020016040519081016040528092919081815260200182805461089b906157f5565b80156108e85780601f106108bd576101008083540402835291602001916108e8565b820191906000526020600020905b8154815290600101906020018083116108cb57829003601f168201915b505050505081526020016008820180548060200260200160405190810160405280929190818152602001828054801561094057602002820191906000526020600020905b81548152602001906001019080831161092c575b5050509183525050600991909101546001600160a01b03166020909101528051519091506109db5760405162461bcd60e51b815260206004820152602260248201527f4a75646765207769746820746869732055494420646f6573206e6f742065786960448201527f737400000000000000000000000000000000000000000000000000000000000060648201526084015b60405180910390fd5b806000015181602001518260400151836060015184608001518560a001518660c001518760e001518861010001518961012001519a509a509a509a509a509a509a509a509a509a50509193959799509193959799565b6000806000606060008060608060608060606000600660008e81526020019081526020016000206040518061016001604052908160008201548152602001600182015481526020016002820154815260200160038201805480602002602001604051908101604052809291908181526020018280548015610ad157602002820191906000526020600020905b815481526020019060010190808311610abd575b505050505081526020016004820154815260200160058201548152602001600682018054610afe906157f5565b80601f0160208091040260200160405190810160405280929190818152602001828054610b2a906157f5565b8015610b775780601f10610b4c57610100808354040283529160200191610b77565b820191906000526020600020905b815481529060010190602001808311610b5a57829003601f168201915b5050505050815260200160078201805480602002602001604051908101604052809291908181526020016000905b82821015610c51578382906000526020600020018054610bc4906157f5565b80601f0160208091040260200160405190810160405280929190818152602001828054610bf0906157f5565b8015610c3d5780601f10610c1257610100808354040283529160200191610c3d565b820191906000526020600020905b815481529060010190602001808311610c2057829003601f168201915b505050505081526020019060010190610ba5565b50505050815260200160088201805480602002602001604051908101604052809291908181526020018280548015610cb257602002820191906000526020600020905b81546001600160a01b03168152600190910190602001808311610c94575b5050505050815260200160098201805480602002602001604051908101604052809291908181526020016000905b82821015610d8c578382906000526020600020018054610cff906157f5565b80601f0160208091040260200160405190810160405280929190818152602001828054610d2b906157f5565b8015610d785780601f10610d4d57610100808354040283529160200191610d78565b820191906000526020600020905b815481529060010190602001808311610d5b57829003601f168201915b505050505081526020019060010190610ce0565b505050508152602001600a8201805480602002602001604051908101604052809291908181526020018280548015610ded57602002820191906000526020600020905b81546001600160a01b03168152600190910190602001808311610dcf575b505050505081525050905060008160c001515111610e605760405162461bcd60e51b815260206004820152602a60248201527f4c6567616c2063617365207769746820746869732063617365496420646f6573604482015269081b9bdd08195e1a5cdd60b21b60648201526084016109d2565b806000015181602001518260400151836060015184608001518560a001518660c001518760e001518861010001518961012001518a61014001519b509b509b509b509b509b509b509b509b509b509b505091939597999b90929496989a50565b60008181526007602052604081208054829190610edc906157f5565b9050119050919050565b6000546001600160a01b03163314610f665760405162461bcd60e51b815260206004820152602560248201527f4f6e6c7920746865206f776e65722063616e2063616c6c20746869732066756e60448201527f6374696f6e00000000000000000000000000000000000000000000000000000060648201526084016109d2565b6000895111610fb75760405162461bcd60e51b815260206004820152601460248201527f4e616d652063616e6e6f7420626520656d70747900000000000000000000000060448201526064016109d2565b60008851116110085760405162461bcd60e51b815260206004820152601d60248201527f44617465206f662042697274682063616e6e6f7420626520656d70747900000060448201526064016109d2565b60008751116110595760405162461bcd60e51b815260206004820152601860248201527f52656c6967696f6e2063616e6e6f7420626520656d707479000000000000000060448201526064016109d2565b60008651116110aa5760405162461bcd60e51b815260206004820152601b60248201527f4e6174696f6e616c6974792063616e6e6f7420626520656d707479000000000060448201526064016109d2565b60008551116110fb5760405162461bcd60e51b815260206004820152601360248201527f5365782063616e6e6f7420626520656d7074790000000000000000000000000060448201526064016109d2565b600084511161114c5760405162461bcd60e51b815260206004820152601e60248201527f436f6e74616374204e756d6265722063616e6e6f7420626520656d707479000060448201526064016109d2565b600083118015611161575064e8d4a50fff8311155b61119b5760405162461bcd60e51b815260206004820152600b60248201526a125b9d985b1a590815525160aa1b60448201526064016109d2565b6040805160008082526101608201835260208083018d81528385018d9052606084018c9052608084018b905260a084018a905260c0840189905260e08401889052610100840187905261012084018490526001600160a01b038616610140850152878352600882529390912083518051939493919261121f92849290910190614dba565b5060208281015180516112389260018501920190614dba565b5060408201518051611254916002840191602090910190614dba565b5060608201518051611270916003840191602090910190614dba565b506080820151805161128c916004840191602090910190614dba565b5060a082015180516112a8916005840191602090910190614dba565b5060c0820151600682015560e082015180516112ce916007840191602090910190614dba565b5061010082015180516112eb916008840191602090910190614e3e565b506101209190910151600990910180546001600160a01b0319166001600160a01b039092169190911790556003805460009081526004602052604081208690558154919061133883615830565b90915550506040518481527fbbec6134d2e3aaa44ccc507cded6b0bdfd142003fbc5e69448081e5abdde6b59906020015b60405180910390a150505050505050505050565b6060806060806060806000606080600080600560008d8152602001908152602001600020604051806101400160405290816000820180546113bd906157f5565b80601f01602080910402602001604051908101604052809291908181526020018280546113e9906157f5565b80156114365780601f1061140b57610100808354040283529160200191611436565b820191906000526020600020905b81548152906001019060200180831161141957829003601f168201915b5050505050815260200160018201805461144f906157f5565b80601f016020809104026020016040519081016040528092919081815260200182805461147b906157f5565b80156114c85780601f1061149d576101008083540402835291602001916114c8565b820191906000526020600020905b8154815290600101906020018083116114ab57829003601f168201915b505050505081526020016002820180546114e1906157f5565b80601f016020809104026020016040519081016040528092919081815260200182805461150d906157f5565b801561155a5780601f1061152f5761010080835404028352916020019161155a565b820191906000526020600020905b81548152906001019060200180831161153d57829003601f168201915b50505050508152602001600382018054611573906157f5565b80601f016020809104026020016040519081016040528092919081815260200182805461159f906157f5565b80156115ec5780601f106115c1576101008083540402835291602001916115ec565b820191906000526020600020905b8154815290600101906020018083116115cf57829003601f168201915b50505050508152602001600482018054611605906157f5565b80601f0160208091040260200160405190810160405280929190818152602001828054611631906157f5565b801561167e5780601f106116535761010080835404028352916020019161167e565b820191906000526020600020905b81548152906001019060200180831161166157829003601f168201915b50505050508152602001600582018054611697906157f5565b80601f01602080910402602001604051908101604052809291908181526020018280546116c3906157f5565b80156117105780601f106116e557610100808354040283529160200191611710565b820191906000526020600020905b8154815290600101906020018083116116f357829003601f168201915b5050505050815260200160068201548152602001600782018054611733906157f5565b80601f016020809104026020016040519081016040528092919081815260200182805461175f906157f5565b80156117ac5780601f10611781576101008083540402835291602001916117ac565b820191906000526020600020905b81548152906001019060200180831161178f57829003601f168201915b505050505081526020016008820180548060200260200160405190810160405280929190818152602001828054801561180457602002820191906000526020600020905b8154815260200190600101908083116117f0575b5050509183525050600991909101546001600160a01b03166020909101528051519091506109db5760405162461bcd60e51b815260206004820152602360248201527f436c69656e74207769746820746869732055494420646f6573206e6f742065786044820152621a5cdd60ea1b60648201526084016109d2565b60008951116118d15760405162461bcd60e51b815260206004820152601460248201527f4e616d652063616e6e6f7420626520656d70747900000000000000000000000060448201526064016109d2565b60008851116119225760405162461bcd60e51b815260206004820152601d60248201527f44617465206f662042697274682063616e6e6f7420626520656d70747900000060448201526064016109d2565b60008751116119735760405162461bcd60e51b815260206004820152601860248201527f52656c6967696f6e2063616e6e6f7420626520656d707479000000000000000060448201526064016109d2565b60008651116119c45760405162461bcd60e51b815260206004820152601b60248201527f4e6174696f6e616c6974792063616e6e6f7420626520656d707479000000000060448201526064016109d2565b6000855111611a155760405162461bcd60e51b815260206004820152601360248201527f5365782063616e6e6f7420626520656d7074790000000000000000000000000060448201526064016109d2565b6000845111611a665760405162461bcd60e51b815260206004820152601e60248201527f436f6e74616374204e756d6265722063616e6e6f7420626520656d707479000060448201526064016109d2565b600083118015611a7b575064e8d4a50fff8311155b611ab55760405162461bcd60e51b815260206004820152600b60248201526a125b9d985b1a590815525160aa1b60448201526064016109d2565b6040805160008082526101608201835260208083018d81528385018d9052606084018c9052608084018b905260a084018a905260c0840189905260e08401889052610100840187905261012084018490526001600160a01b0386166101408501528783526005825293909120835180519394939192611b3992849290910190614dba565b506020828101518051611b529260018501920190614dba565b5060408201518051611b6e916002840191602090910190614dba565b5060608201518051611b8a916003840191602090910190614dba565b5060808201518051611ba6916004840191602090910190614dba565b5060a08201518051611bc2916005840191602090910190614dba565b5060c0820151600682015560e08201518051611be8916007840191602090910190614dba565b506101008201518051611c05916008840191602090910190614e3e565b506101209190910151600990910180546001600160a01b0319166001600160a01b039092169190911790556040518481527fdb98d64bce14f69afc09a9d5be5cedfc3bfda8bd47a800ab3ac10a773463903790602001611369565b606060006008600084815260200190815260200160002060405180610140016040529081600082018054611c93906157f5565b80601f0160208091040260200160405190810160405280929190818152602001828054611cbf906157f5565b8015611d0c5780601f10611ce157610100808354040283529160200191611d0c565b820191906000526020600020905b815481529060010190602001808311611cef57829003601f168201915b50505050508152602001600182018054611d25906157f5565b80601f0160208091040260200160405190810160405280929190818152602001828054611d51906157f5565b8015611d9e5780601f10611d7357610100808354040283529160200191611d9e565b820191906000526020600020905b815481529060010190602001808311611d8157829003601f168201915b50505050508152602001600282018054611db7906157f5565b80601f0160208091040260200160405190810160405280929190818152602001828054611de3906157f5565b8015611e305780601f10611e0557610100808354040283529160200191611e30565b820191906000526020600020905b815481529060010190602001808311611e1357829003601f168201915b50505050508152602001600382018054611e49906157f5565b80601f0160208091040260200160405190810160405280929190818152602001828054611e75906157f5565b8015611ec25780601f10611e9757610100808354040283529160200191611ec2565b820191906000526020600020905b815481529060010190602001808311611ea557829003601f168201915b50505050508152602001600482018054611edb906157f5565b80601f0160208091040260200160405190810160405280929190818152602001828054611f07906157f5565b8015611f545780601f10611f2957610100808354040283529160200191611f54565b820191906000526020600020905b815481529060010190602001808311611f3757829003601f168201915b50505050508152602001600582018054611f6d906157f5565b80601f0160208091040260200160405190810160405280929190818152602001828054611f99906157f5565b8015611fe65780601f10611fbb57610100808354040283529160200191611fe6565b820191906000526020600020905b815481529060010190602001808311611fc957829003601f168201915b5050505050815260200160068201548152602001600782018054612009906157f5565b80601f0160208091040260200160405190810160405280929190818152602001828054612035906157f5565b80156120825780601f1061205757610100808354040283529160200191612082565b820191906000526020600020905b81548152906001019060200180831161206557829003601f168201915b50505050508152602001600882018054806020026020016040519081016040528092919081815260200182805480156120da57602002820191906000526020600020905b8154815260200190600101908083116120c6575b5050509183525050600991909101546001600160a01b03166020909101528051519091506121565760405162461bcd60e51b815260206004820152602360248201527f4c6177796572207769746820746869732055494420646f6573206e6f742065786044820152621a5cdd60ea1b60648201526084016109d2565b610100810151805160009067ffffffffffffffff81111561217957612179615278565b60405190808252806020026020018201604052801561220757816020015b6121f460405180610160016040528060008152602001600081526020016000815260200160608152602001600081526020016000815260200160608152602001606081526020016060815260200160608152602001606081525090565b8152602001906001900390816121975790505b50905060005b8251811015612610576006600084838151811061222c5761222c615859565b6020026020010151815260200190815260200160002060405180610160016040529081600082015481526020016001820154815260200160028201548152602001600382018054806020026020016040519081016040528092919081815260200182805480156122bb57602002820191906000526020600020905b8154815260200190600101908083116122a7575b5050505050815260200160048201548152602001600582015481526020016006820180546122e8906157f5565b80601f0160208091040260200160405190810160405280929190818152602001828054612314906157f5565b80156123615780601f1061233657610100808354040283529160200191612361565b820191906000526020600020905b81548152906001019060200180831161234457829003601f168201915b5050505050815260200160078201805480602002602001604051908101604052809291908181526020016000905b8282101561243b5783829060005260206000200180546123ae906157f5565b80601f01602080910402602001604051908101604052809291908181526020018280546123da906157f5565b80156124275780601f106123fc57610100808354040283529160200191612427565b820191906000526020600020905b81548152906001019060200180831161240a57829003601f168201915b50505050508152602001906001019061238f565b5050505081526020016008820180548060200260200160405190810160405280929190818152602001828054801561249c57602002820191906000526020600020905b81546001600160a01b0316815260019091019060200180831161247e575b5050505050815260200160098201805480602002602001604051908101604052809291908181526020016000905b828210156125765783829060005260206000200180546124e9906157f5565b80601f0160208091040260200160405190810160405280929190818152602001828054612515906157f5565b80156125625780601f1061253757610100808354040283529160200191612562565b820191906000526020600020905b81548152906001019060200180831161254557829003601f168201915b5050505050815260200190600101906124ca565b505050508152602001600a82018054806020026020016040519081016040528092919081815260200182805480156125d757602002820191906000526020600020905b81546001600160a01b031681526001909101906020018083116125b9575b5050505050815250508282815181106125f2576125f2615859565b6020026020010181905250808061260890615830565b91505061220d565b50949350505050565b60008281526006602081905260408220908101805483919061263a906157f5565b90501161269c5760405162461bcd60e51b815260206004820152602a60248201527f4c6567616c2063617365207769746820746869732063617365496420646f6573604482015269081b9bdd08195e1a5cdd60b21b60648201526084016109d2565b600781018054600181018255600091825260209182902085516126c793919092019190860190614dba565b50600801805460018181018355600092835260209092200180546001600160a01b03191633179055905092915050565b60008951116127485760405162461bcd60e51b815260206004820152601460248201527f4e616d652063616e6e6f7420626520656d70747900000000000000000000000060448201526064016109d2565b60008851116127995760405162461bcd60e51b815260206004820152601d60248201527f44617465206f662042697274682063616e6e6f7420626520656d70747900000060448201526064016109d2565b60008751116127ea5760405162461bcd60e51b815260206004820152601860248201527f52656c6967696f6e2063616e6e6f7420626520656d707479000000000000000060448201526064016109d2565b600086511161283b5760405162461bcd60e51b815260206004820152601b60248201527f4e6174696f6e616c6974792063616e6e6f7420626520656d707479000000000060448201526064016109d2565b600085511161288c5760405162461bcd60e51b815260206004820152601360248201527f5365782063616e6e6f7420626520656d7074790000000000000000000000000060448201526064016109d2565b60008451116128dd5760405162461bcd60e51b815260206004820152601e60248201527f436f6e74616374204e756d6265722063616e6e6f7420626520656d707479000060448201526064016109d2565b6000831180156128f2575064e8d4a50fff8311155b61292c5760405162461bcd60e51b815260206004820152600b60248201526a125b9d985b1a590815525160aa1b60448201526064016109d2565b6040805160008082526101608201835260208083018d81528385018d9052606084018c9052608084018b905260a084018a905260c0840189905260e08401889052610100840187905261012084018490526001600160a01b03861661014085015287835260078252939091208351805193949391926129b092849290910190614dba565b5060208281015180516129c99260018501920190614dba565b50604082015180516129e5916002840191602090910190614dba565b5060608201518051612a01916003840191602090910190614dba565b5060808201518051612a1d916004840191602090910190614dba565b5060a08201518051612a39916005840191602090910190614dba565b5060c0820151600682015560e08201518051612a5f916007840191602090910190614dba565b506101008201518051612a7c916008840191602090910190614e3e565b506101209190910151600990910180546001600160a01b0319166001600160a01b039092169190911790556040518481527fafa88b3c4c7debe56354edde99672e0b65d091fcabfe191d6d2e365fab741e7c90602001611369565b60008181526005602052604081208054829190610edc906157f5565b6000848152600560205260408082208583529082208154919290918390612b19906157f5565b9050118015612b3857506000816000018054612b34906157f5565b9050115b612b845760405162461bcd60e51b815260206004820152601760248201527f426f746820636c69656e7473206d75737420657869737400000000000000000060448201526064016109d2565b6002546000612b91614d5d565b9050604051806101600160405280898152602001888152602001428152602001868152602001828152602001838152602001878152602001600067ffffffffffffffff811115612be357612be3615278565b604051908082528060200260200182016040528015612c1657816020015b6060815260200190600190039081612c015790505b5081526020016000604051908082528060200260200182016040528015612c47578160200160208202803683370190505b5081526020016000604051908082528060200260200182016040528015612c8257816020015b6060815260200190600190039081612c6d5790505b5081526020016000604051908082528060200260200182016040528015612cb3578160200160208202803683370190505b5090526000838152600660209081526040918290208351815583820151600182015591830151600283015560608301518051612cf59260038501920190614e3e565b506080820151600482015560a0820151600582015560c08201518051612d25916006840191602090910190614dba565b5060e08201518051612d41916007840191602090910190614e78565b506101008201518051612d5e916008840191602090910190614ed1565b506101208201518051612d7b916009840191602090910190614e78565b506101408201518051612d9891600a840191602090910190614ed1565b50505060008281526006602090815260408083206007018054600181018255908452928290208151808301909252601d8083527f436173652072656769737465726564207769746820452d5661756c742e00000092909301918252612dfe930191614dba565b50600082815260066020908152604080832060089081018054600181810183559186528486200180546001600160a01b031916301790558882018054808301825590865284862001879055878201805480830182559086528486200187905585855281845291842090810180549283018155845291832001849055905b8651811015612ee157600060076000898481518110612e9c57612e9c615859565b60209081029190910181015182528181019290925260400160009081206008018054600181018255908252919020018590555080612ed981615830565b915050612e7b565b5060028054906000612ef283615830565b90915550506040518381527fc714c2f75aec4b9432c92370d29c7cb51d14202a0854eb1eb959110e13e695289060200160405180910390a1505050505050505050565b606060006005600084815260200190815260200160002060405180610140016040529081600082018054612f68906157f5565b80601f0160208091040260200160405190810160405280929190818152602001828054612f94906157f5565b8015612fe15780601f10612fb657610100808354040283529160200191612fe1565b820191906000526020600020905b815481529060010190602001808311612fc457829003601f168201915b50505050508152602001600182018054612ffa906157f5565b80601f0160208091040260200160405190810160405280929190818152602001828054613026906157f5565b80156130735780601f1061304857610100808354040283529160200191613073565b820191906000526020600020905b81548152906001019060200180831161305657829003601f168201915b5050505050815260200160028201805461308c906157f5565b80601f01602080910402602001604051908101604052809291908181526020018280546130b8906157f5565b80156131055780601f106130da57610100808354040283529160200191613105565b820191906000526020600020905b8154815290600101906020018083116130e857829003601f168201915b5050505050815260200160038201805461311e906157f5565b80601f016020809104026020016040519081016040528092919081815260200182805461314a906157f5565b80156131975780601f1061316c57610100808354040283529160200191613197565b820191906000526020600020905b81548152906001019060200180831161317a57829003601f168201915b505050505081526020016004820180546131b0906157f5565b80601f01602080910402602001604051908101604052809291908181526020018280546131dc906157f5565b80156132295780601f106131fe57610100808354040283529160200191613229565b820191906000526020600020905b81548152906001019060200180831161320c57829003601f168201915b50505050508152602001600582018054613242906157f5565b80601f016020809104026020016040519081016040528092919081815260200182805461326e906157f5565b80156132bb5780601f10613290576101008083540402835291602001916132bb565b820191906000526020600020905b81548152906001019060200180831161329e57829003601f168201915b50505050508152602001600682015481526020016007820180546132de906157f5565b80601f016020809104026020016040519081016040528092919081815260200182805461330a906157f5565b80156133575780601f1061332c57610100808354040283529160200191613357565b820191906000526020600020905b81548152906001019060200180831161333a57829003601f168201915b50505050508152602001600882018054806020026020016040519081016040528092919081815260200182805480156133af57602002820191906000526020600020905b81548152602001906001019080831161339b575b5050509183525050600991909101546001600160a01b031660209091015280515190915061342b5760405162461bcd60e51b815260206004820152602360248201527f436c69656e74207769746820746869732055494420646f6573206e6f742065786044820152621a5cdd60ea1b60648201526084016109d2565b610100810151805160009067ffffffffffffffff81111561344e5761344e615278565b6040519080825280602002602001820160405280156134dc57816020015b6134c960405180610160016040528060008152602001600081526020016000815260200160608152602001600081526020016000815260200160608152602001606081526020016060815260200160608152602001606081525090565b81526020019060019003908161346c5790505b50905060005b8251811015612610576006600084838151811061350157613501615859565b60200260200101518152602001908152602001600020604051806101600160405290816000820154815260200160018201548152602001600282015481526020016003820180548060200260200160405190810160405280929190818152602001828054801561359057602002820191906000526020600020905b81548152602001906001019080831161357c575b5050505050815260200160048201548152602001600582015481526020016006820180546135bd906157f5565b80601f01602080910402602001604051908101604052809291908181526020018280546135e9906157f5565b80156136365780601f1061360b57610100808354040283529160200191613636565b820191906000526020600020905b81548152906001019060200180831161361957829003601f168201915b5050505050815260200160078201805480602002602001604051908101604052809291908181526020016000905b82821015613710578382906000526020600020018054613683906157f5565b80601f01602080910402602001604051908101604052809291908181526020018280546136af906157f5565b80156136fc5780601f106136d1576101008083540402835291602001916136fc565b820191906000526020600020905b8154815290600101906020018083116136df57829003601f168201915b505050505081526020019060010190613664565b5050505081526020016008820180548060200260200160405190810160405280929190818152602001828054801561377157602002820191906000526020600020905b81546001600160a01b03168152600190910190602001808311613753575b5050505050815260200160098201805480602002602001604051908101604052809291908181526020016000905b8282101561384b5783829060005260206000200180546137be906157f5565b80601f01602080910402602001604051908101604052809291908181526020018280546137ea906157f5565b80156138375780601f1061380c57610100808354040283529160200191613837565b820191906000526020600020905b81548152906001019060200180831161381a57829003601f168201915b50505050508152602001906001019061379f565b505050508152602001600a82018054806020026020016040519081016040528092919081815260200182805480156138ac57602002820191906000526020600020905b81546001600160a01b0316815260019091019060200180831161388e575b5050505050815250508282815181106138c7576138c7615859565b602002602001018190525080806138dd90615830565b9150506134e2565b600180546138f2906157f5565b80601f016020809104026020016040519081016040528092919081815260200182805461391e906157f5565b801561396b5780601f106139405761010080835404028352916020019161396b565b820191906000526020600020905b81548152906001019060200180831161394e57829003601f168201915b505050505081565b600082815260066020819052604082209081018054839190613994906157f5565b9050116139f65760405162461bcd60e51b815260206004820152602a60248201527f4c6567616c2063617365207769746820746869732063617365496420646f6573604482015269081b9bdd08195e1a5cdd60b21b60648201526084016109d2565b60098101805460018101825560009182526020918290208551613a2193919092019190860190614dba565b50600a01805460018181018355600092835260209092200180546001600160a01b03191633179055905092915050565b60008181526008602052604081208054829190610edc906157f5565b6060806060806060806000606080600080600760008d815260200190815260200160002060405180610140016040529081600082018054613aad906157f5565b80601f0160208091040260200160405190810160405280929190818152602001828054613ad9906157f5565b8015613b265780601f10613afb57610100808354040283529160200191613b26565b820191906000526020600020905b815481529060010190602001808311613b0957829003601f168201915b50505050508152602001600182018054613b3f906157f5565b80601f0160208091040260200160405190810160405280929190818152602001828054613b6b906157f5565b8015613bb85780601f10613b8d57610100808354040283529160200191613bb8565b820191906000526020600020905b815481529060010190602001808311613b9b57829003601f168201915b50505050508152602001600282018054613bd1906157f5565b80601f0160208091040260200160405190810160405280929190818152602001828054613bfd906157f5565b8015613c4a5780601f10613c1f57610100808354040283529160200191613c4a565b820191906000526020600020905b815481529060010190602001808311613c2d57829003601f168201915b50505050508152602001600382018054613c63906157f5565b80601f0160208091040260200160405190810160405280929190818152602001828054613c8f906157f5565b8015613cdc5780601f10613cb157610100808354040283529160200191613cdc565b820191906000526020600020905b815481529060010190602001808311613cbf57829003601f168201915b50505050508152602001600482018054613cf5906157f5565b80601f0160208091040260200160405190810160405280929190818152602001828054613d21906157f5565b8015613d6e5780601f10613d4357610100808354040283529160200191613d6e565b820191906000526020600020905b815481529060010190602001808311613d5157829003601f168201915b50505050508152602001600582018054613d87906157f5565b80601f0160208091040260200160405190810160405280929190818152602001828054613db3906157f5565b8015613e005780601f10613dd557610100808354040283529160200191613e00565b820191906000526020600020905b815481529060010190602001808311613de357829003601f168201915b5050505050815260200160068201548152602001600782018054613e23906157f5565b80601f0160208091040260200160405190810160405280929190818152602001828054613e4f906157f5565b8015613e9c5780601f10613e7157610100808354040283529160200191613e9c565b820191906000526020600020905b815481529060010190602001808311613e7f57829003601f168201915b5050505050815260200160088201805480602002602001604051908101604052809291908181526020018280548015613ef457602002820191906000526020600020905b815481526020019060010190808311613ee0575b5050509183525050600991909101546001600160a01b03166020909101528051519091506109db5760405162461bcd60e51b815260206004820152602360248201527f4c6177796572207769746820746869732055494420646f6573206e6f742065786044820152621a5cdd60ea1b60648201526084016109d2565b600760205260009081526040902080548190613f8b906157f5565b80601f0160208091040260200160405190810160405280929190818152602001828054613fb7906157f5565b80156140045780601f10613fd957610100808354040283529160200191614004565b820191906000526020600020905b815481529060010190602001808311613fe757829003601f168201915b505050505090806001018054614019906157f5565b80601f0160208091040260200160405190810160405280929190818152602001828054614045906157f5565b80156140925780601f1061406757610100808354040283529160200191614092565b820191906000526020600020905b81548152906001019060200180831161407557829003601f168201915b5050505050908060020180546140a7906157f5565b80601f01602080910402602001604051908101604052809291908181526020018280546140d3906157f5565b80156141205780601f106140f557610100808354040283529160200191614120565b820191906000526020600020905b81548152906001019060200180831161410357829003601f168201915b505050505090806003018054614135906157f5565b80601f0160208091040260200160405190810160405280929190818152602001828054614161906157f5565b80156141ae5780601f10614183576101008083540402835291602001916141ae565b820191906000526020600020905b81548152906001019060200180831161419157829003601f168201915b5050505050908060040180546141c3906157f5565b80601f01602080910402602001604051908101604052809291908181526020018280546141ef906157f5565b801561423c5780601f106142115761010080835404028352916020019161423c565b820191906000526020600020905b81548152906001019060200180831161421f57829003601f168201915b505050505090806005018054614251906157f5565b80601f016020809104026020016040519081016040528092919081815260200182805461427d906157f5565b80156142ca5780601f1061429f576101008083540402835291602001916142ca565b820191906000526020600020905b8154815290600101906020018083116142ad57829003601f168201915b5050505050908060060154908060070180546142e5906157f5565b80601f0160208091040260200160405190810160405280929190818152602001828054614311906157f5565b801561435e5780601f106143335761010080835404028352916020019161435e565b820191906000526020600020905b81548152906001019060200180831161434157829003601f168201915b505050600990930154919250506001600160a01b031689565b600860205260009081526040902080548190613f8b906157f5565b6060600060076000848152602001908152602001600020604051806101400160405290816000820180546143c5906157f5565b80601f01602080910402602001604051908101604052809291908181526020018280546143f1906157f5565b801561443e5780601f106144135761010080835404028352916020019161443e565b820191906000526020600020905b81548152906001019060200180831161442157829003601f168201915b50505050508152602001600182018054614457906157f5565b80601f0160208091040260200160405190810160405280929190818152602001828054614483906157f5565b80156144d05780601f106144a5576101008083540402835291602001916144d0565b820191906000526020600020905b8154815290600101906020018083116144b357829003601f168201915b505050505081526020016002820180546144e9906157f5565b80601f0160208091040260200160405190810160405280929190818152602001828054614515906157f5565b80156145625780601f1061453757610100808354040283529160200191614562565b820191906000526020600020905b81548152906001019060200180831161454557829003601f168201915b5050505050815260200160038201805461457b906157f5565b80601f01602080910402602001604051908101604052809291908181526020018280546145a7906157f5565b80156145f45780601f106145c9576101008083540402835291602001916145f4565b820191906000526020600020905b8154815290600101906020018083116145d757829003601f168201915b5050505050815260200160048201805461460d906157f5565b80601f0160208091040260200160405190810160405280929190818152602001828054614639906157f5565b80156146865780601f1061465b57610100808354040283529160200191614686565b820191906000526020600020905b81548152906001019060200180831161466957829003601f168201915b5050505050815260200160058201805461469f906157f5565b80601f01602080910402602001604051908101604052809291908181526020018280546146cb906157f5565b80156147185780601f106146ed57610100808354040283529160200191614718565b820191906000526020600020905b8154815290600101906020018083116146fb57829003601f168201915b505050505081526020016006820154815260200160078201805461473b906157f5565b80601f0160208091040260200160405190810160405280929190818152602001828054614767906157f5565b80156147b45780601f10614789576101008083540402835291602001916147b4565b820191906000526020600020905b81548152906001019060200180831161479757829003601f168201915b505050505081526020016008820180548060200260200160405190810160405280929190818152602001828054801561480c57602002820191906000526020600020905b8154815260200190600101908083116147f8575b5050509183525050600991909101546001600160a01b03166020909101528051519091506148885760405162461bcd60e51b815260206004820152602360248201527f4c6177796572207769746820746869732055494420646f6573206e6f742065786044820152621a5cdd60ea1b60648201526084016109d2565b610100810151805160009067ffffffffffffffff8111156148ab576148ab615278565b60405190808252806020026020018201604052801561493957816020015b61492660405180610160016040528060008152602001600081526020016000815260200160608152602001600081526020016000815260200160608152602001606081526020016060815260200160608152602001606081525090565b8152602001906001900390816148c95790505b50905060005b8251811015612610576006600084838151811061495e5761495e615859565b6020026020010151815260200190815260200160002060405180610160016040529081600082015481526020016001820154815260200160028201548152602001600382018054806020026020016040519081016040528092919081815260200182805480156149ed57602002820191906000526020600020905b8154815260200190600101908083116149d9575b505050505081526020016004820154815260200160058201548152602001600682018054614a1a906157f5565b80601f0160208091040260200160405190810160405280929190818152602001828054614a46906157f5565b8015614a935780601f10614a6857610100808354040283529160200191614a93565b820191906000526020600020905b815481529060010190602001808311614a7657829003601f168201915b5050505050815260200160078201805480602002602001604051908101604052809291908181526020016000905b82821015614b6d578382906000526020600020018054614ae0906157f5565b80601f0160208091040260200160405190810160405280929190818152602001828054614b0c906157f5565b8015614b595780601f10614b2e57610100808354040283529160200191614b59565b820191906000526020600020905b815481529060010190602001808311614b3c57829003601f168201915b505050505081526020019060010190614ac1565b50505050815260200160088201805480602002602001604051908101604052809291908181526020018280548015614bce57602002820191906000526020600020905b81546001600160a01b03168152600190910190602001808311614bb0575b5050505050815260200160098201805480602002602001604051908101604052809291908181526020016000905b82821015614ca8578382906000526020600020018054614c1b906157f5565b80601f0160208091040260200160405190810160405280929190818152602001828054614c47906157f5565b8015614c945780601f10614c6957610100808354040283529160200191614c94565b820191906000526020600020905b815481529060010190602001808311614c7757829003601f168201915b505050505081526020019060010190614bfc565b505050508152602001600a8201805480602002602001604051908101604052809291908181526020018280548015614d0957602002820191906000526020600020905b81546001600160a01b03168152600190910190602001808311614ceb575b505050505081525050828281518110614d2457614d24615859565b60200260200101819052508080614d3a90615830565b91505061493f565b600560205260009081526040902080548190613f8b906157f5565b600080614d6960035490565b905060008142604051602001614d8191815260200190565b6040516020818303038152906040528051906020012060001c614da4919061586f565b6000908152600460205260409020549392505050565b828054614dc6906157f5565b90600052602060002090601f016020900481019282614de85760008555614e2e565b82601f10614e0157805160ff1916838001178555614e2e565b82800160010185558215614e2e579182015b82811115614e2e578251825591602001919060010190614e13565b50614e3a929150614f26565b5090565b828054828255906000526020600020908101928215614e2e5791602002820182811115614e2e578251825591602001919060010190614e13565b828054828255906000526020600020908101928215614ec5579160200282015b82811115614ec55782518051614eb5918491602090910190614dba565b5091602001919060010190614e98565b50614e3a929150614f3b565b828054828255906000526020600020908101928215614e2e579160200282015b82811115614e2e57825182546001600160a01b0319166001600160a01b03909116178255602090920191600190910190614ef1565b5b80821115614e3a5760008155600101614f27565b80821115614e3a576000614f4f8282614f58565b50600101614f3b565b508054614f64906157f5565b6000825580601f10614f74575050565b601f016020900490600052602060002090810190614f929190614f26565b50565b600060208284031215614fa757600080fd5b5035919050565b6000815180845260005b81811015614fd457602081850181015186830182015201614fb8565b81811115614fe6576000602083870101525b50601f01601f19169290920160200192915050565b86815285602082015284604082015283606082015282608082015260c060a0820152600061502c60c0830184614fae565b98975050505050505050565b600081518084526020808501945080840160005b838110156150685781518752958201959082019060010161504c565b509495945050505050565b60006101408083526150878184018e614fae565b9050828103602084015261509b818d614fae565b905082810360408401526150af818c614fae565b905082810360608401526150c3818b614fae565b905082810360808401526150d7818a614fae565b905082810360a08401526150eb8189614fae565b90508660c084015282810360e08401526151058187614fae565b905082810361010084015261511a8186615038565b9150506001600160a01b0383166101208301529b9a5050505050505050505050565b600082825180855260208086019550808260051b84010181860160005b8481101561518757601f19868403018952615175838351614fae565b98840198925090830190600101615159565b5090979650505050505050565b600081518084526020808501945080840160005b838110156150685781516001600160a01b0316875295820195908201906001016151a8565b60006101608d83528c60208401528b60408401528060608401526151f38184018c615038565b90508960808401528860a084015282810360c08401526152138189614fae565b905082810360e0840152615227818861513c565b905082810361010084015261523c8187615194565b9050828103610120840152615251818661513c565b90508281036101408401526152668185615194565b9e9d5050505050505050505050505050565b634e487b7160e01b600052604160045260246000fd5b604051601f8201601f1916810167ffffffffffffffff811182821017156152b7576152b7615278565b604052919050565b600082601f8301126152d057600080fd5b813567ffffffffffffffff8111156152ea576152ea615278565b6152fd601f8201601f191660200161528e565b81815284602083860101111561531257600080fd5b816020850160208301376000918101602001919091529392505050565b80356001600160a01b038116811461534657600080fd5b919050565b60008060008060008060008060006101208a8c03121561536a57600080fd5b893567ffffffffffffffff8082111561538257600080fd5b61538e8d838e016152bf565b9a5060208c01359150808211156153a457600080fd5b6153b08d838e016152bf565b995060408c01359150808211156153c657600080fd5b6153d28d838e016152bf565b985060608c01359150808211156153e857600080fd5b6153f48d838e016152bf565b975060808c013591508082111561540a57600080fd5b6154168d838e016152bf565b965060a08c013591508082111561542c57600080fd5b6154388d838e016152bf565b955060c08c0135945060e08c013591508082111561545557600080fd5b506154628c828d016152bf565b9250506154726101008b0161532f565b90509295985092959850929598565b600081518084526020808501808196508360051b8101915082860160005b858110156154c95782840389526154b7848351614fae565b9885019893509084019060010161549f565b5091979650505050505050565b60006020808301818452808551808352604092508286019150828160051b87010184880160005b838110156155f557603f1989840301855281516101608151855288820151898601528782015188860152606080830151828288015261553e83880182615038565b92505050608080830151818701525060a080830151818701525060c0808301518683038288015261556f8382614fae565b9250505060e0808301518683038288015261558a8382615481565b9250505061010080830151868303828801526155a68382615194565b9250505061012080830151868303828801526155c28382615481565b9250505061014080830151925085820381870152506155e18183615194565b9689019694505050908601906001016154fd565b509098975050505050505050565b6000806040838503121561561657600080fd5b82359150602083013567ffffffffffffffff81111561563457600080fd5b615640858286016152bf565b9150509250929050565b6000806000806080858703121561566057600080fd5b843593506020808601359350604086013567ffffffffffffffff8082111561568757600080fd5b61569389838a016152bf565b945060608801359150808211156156a957600080fd5b818801915088601f8301126156bd57600080fd5b8135818111156156cf576156cf615278565b8060051b91506156e084830161528e565b818152918301840191848101908b8411156156fa57600080fd5b938501935b83851015615718578435825293850193908501906156ff565b989b979a50959850505050505050565b60208152600061573b6020830184614fae565b9392505050565b60006101208083526157568184018d614fae565b9050828103602084015261576a818c614fae565b9050828103604084015261577e818b614fae565b90508281036060840152615792818a614fae565b905082810360808401526157a68189614fae565b905082810360a08401526157ba8188614fae565b90508560c084015282810360e08401526157d48186614fae565b9150506001600160a01b0383166101008301529a9950505050505050505050565b600181811c9082168061580957607f821691505b6020821081141561582a57634e487b7160e01b600052602260045260246000fd5b50919050565b600060001982141561585257634e487b7160e01b600052601160045260246000fd5b5060010190565b634e487b7160e01b600052603260045260246000fd5b60008261588c57634e487b7160e01b600052601260045260246000fd5b50069056fea26469706673582212207acb044d648f54b8c339acdae72494031ad9bef66218c23a7ce3e101726e247664736f6c634300080a0033",
  "linkReferences": {},
  "deployedLinkReferences": {}
}